:060000000A128A110C280F
:10000800FE00030EF9000A08FA000A128A111A29DA
:100018000A128A110F2883133430FD000130FE00C4
:100028007A30FF00203084000A128A1192210A12C5
:100038008A11B401B501B601B701F001F101F2016D
:10004800F301F401F501F601F70183010A128A119F
:100058002D280A128A1150210A128A1183120313B9
:100068002A088700F601F401F301B601F501F00151
:10007800B5017208203E84008313000885007108CA
:10008800203E84000008880006184B284C284E287B
:10009800F401F40A061C5128522863287403031D2E
:1000A8005628572863287008031D5B285C28632896
:1000B8000330B8003808F600F501F50AF4017608AF
:1000C8002A3E84000008870003307606031D6D2849
:1000D8006E287328861506128612F00191280330BF
:1000E80076020318782879288228760803197D284B
:1000F8007E28822886110616861291287608031D06
:100108008628872891287503031D8B288C28912819
:10011800861106128616F001F00A8618942895288A
:100128009728F301F30A861C9A289B28AA287303A8
:10013800031D9F28A028AA287003031DA428A5280A
:10014800A9280130B8003808F207F3010619AD28CC
:10015800AE28B028B601B60A061DB328B428C328AD
:100168003603031DB828B928C3287003031DBD280A
:10017800BE28C2280130B8003808F107B601093096
:1001880072060319C828C928D42809307106031D26
:10019800CE28CF283D287003031DD328D4283D2816
:1001A800720871020318D928DA28F428B501B50AAB
:1001B8002B0887000617063083120313BA00133082
:1001C800B900AD30B800B80BE728B90BE728BA0B6F
:1001D800E72883120313B501F201F101061315296B
:1001E800710872020318F928FA2815290230B80094
:1001F8003808B4002C0887008617063083120313CA
:10020800BA001330B900AD30B800B80B0929B90BE2
:100218000929BA0B092983120313B401F201F10168
:100228008613F0013D280A128A110C280B1D1D297E
:100238001E2944290130F8007808F7070A307706A4
:10024800031D2729282937290430760203182D2968
:100258002E29352976080319322933293529013001
:10026800F602F70144297608031D3B293C29442955
:100278007503031D402941294429F501F001F00ABD
:100288003C308312031381000B117A088A00790E1F
:100298008300FE0E7E0E090083160317880189016C
:1002A80083160313850107308600870188018113AF
:1002B80007309500831203138601850187018801A1
:1002C800831603130F088F3950388F000F148112CB
:1002D80081110115811401143C308312031381002C
:1002E8000B110B118B160B178B17080000340134F8
:1002F8000234043408341034203440348034003458
:100308003F3406345B344F3466346D347D340734FF
:100318007F346F347E088A007F0882000A128A11AF
:100328008E210A128A118000840A04087D060319A6
:0A0338000034FF0A0319FE0A92299F
:04400E00D420FF3F7C
:00000001FF
